:020000040800F2
:1000000000400020F9350008D1340008DB34000836
:1000100000000000000000000000000000000000E0
:10002000000000000000000000000000E1340008B3
:100030000000000000000000EB340008F534000868
:100040004936000849360008493600084936000894
:1000500049360008493600084936000803350008CB
:100060004936000849360008493600084936000874
:100070004936000849360008493600084936000864
:100080004936000849360008493600084936000854
:100090004936000849360008493600084936000844
:1000A0004936000849360008493600084936000834
:1000B0004936000849360008493600084936000824
:1000C000002934D00123002210B488422CD301240B
:1000D0002407A14204D2814202D209011B01F8E7A0
:1000E000E400A14204D2814202D249005B00F8E759
:1000F000884201D3401A1A434C08A04202D3001B85
:100100005C0822438C08A04202D3001B9C082243B7
:10011000CC08A04202D3001BDC082243002803D0F5
:100120001B0901D00909E3E7101C10BC704701B599
:10013000002000F00BF802BD0029F8D003B5FFF74E
:10014000C1FF0EBC4243891A1847C0467047C046DB
:100150008446081C6146FFE71FB503F023FD002815
:1001600001D40021C8421FBD10B503F0B9FC4042C4
:10017000013010BD10B503F015FD002801DB002093
:1001800010BD012010BDC04610B503F00BFD0028C6
:1001900001DD002010BD012010BDC04610B503F0E8
:1001A000C3FC002801DC002010BD012010BDC046AA
:1001B00010B503F0B9FC002801DA002010BD0120C1
:1001C00010BDC04602B4714649084900095C4900A7
:1001D0008E4402BC7047C04603B4714649084000D3
:1001E0004900095A49008E4403BC70471C21012371
:1001F0001B04984201D3000C10391B0A984201D30A
:10020000000A08391B09984201D30009043902A2E7
:10021000105C40187047C04604030202010101014E
:1002200000000000000000000023C25C0133002A2F
:10023000FBD1581E7047000003B4714649084000C6
:100240004900095E49008E4403BC7047002941D033
:1002500010B4041C4C40A44601230022002900D500
:100260004942002800D5404288422CD3012424076B
:10027000A14204D2814202D209011B01F8E7E40045
:10028000A14204D2814202D249005B00F8E78842D1
:1002900001D3401A1A434C08A04202D3001B5C0849
:1002A00022438C08A04202D3001B9C082243CC08A6
:1002B000A04202D3001BDC082243002803D01B0904
:1002C00001D00909E3E7101C6446002C00D5404228
:1002D00010BC704701B50020FFF738FF02BDC046D3
:1002E0000029F7D003B5FFF7B3FF0EBC4243891ACC
:1002F0001847C0468446101C62468C46191C63464B
:1003000000E0C0461FB507F083F9002801D40021A2
:10031000C8421FBD10B507F0E5F84042013010BDDE
:1003200010B507F075F9002801DB002010BD012091
:1003300010BDC04610B507F06BF9002801DD0020A4
:1003400010BD012010BDC04610B507F005F900280A
:1003500001DC002010BD012010BDC04610B507F023
:10036000FBF8002801DA002010BD012010BDC046B6
:1003700010B5064C2378002B07D1054B002B02D07B
:10038000044800E000BF0123237010BD800D002051
:1003900000000000608F0008044B10B5002B03D054
:1003A0000349044800E000BF10BDC0460000000043
:1003B000840D0020608F000880B500AF074B1A68DD
:1003C000064B10210A431A60002000F009F803F0E0
:1003D0000DF800231800BD4680BDC0460020024035
:1003E00080B582B000AF786001F058FD0200FA23BA
:1003F00099001000FFF764FE0300180000F00DF9EB
:10040000796801235B420022180000F0E1F8002324
:100410001800BD4602B080BD80B500AF034B1B681D
:100420005A1C024B1A60C046BD4680BD9C0D002080
:1004300080B500AF024B1B681800BD4680BDC046AA
:100440009C0D002080B584B000AF7860FFF7F0FF0E
:100450000300BB607B68FB60FB68013302D0FB6874
:100460000133FB60C046FFF7E3FF0200BB68D31A0D
:10047000FA689A42F7D8C046C046BD4604B080BD6F
:1004800080B582B000AF0200FB1D1A70FB1D1B7807
:100490001A001F231A40044B012191400A001A60E0
:1004A000C046BD4602B080BD00E100E090B583B01B
:1004B00000AF02003960FB1D1A70FB1D1B787F2BFB
:1004C00032D92F4AFB1D1B7819000F230B40083B24
:1004D0009B0806339B00D31804331B68FA1D12785F
:1004E000110003220A40D200FF2191400A00D243AA
:1004F0001A4011003B689B01FF221A40FB1D1B782C
:10050000180003230340DB009A401D48FB1D1B78A5
:100510001C000F232340083B9B080A4306339B0023
:10052000C31804331A6027E0164AFB1D1B785BB220
:100530009B08C0339B009B58FA1D127811000322C0
:100540000A40D200FF2191400A00D2431A40110014
:100550003B689B01FF221A40FB1D1B7818000323F8
:100560000340DB009A400748FB1D1B785BB29B08E9
:100570000A43C0339B001A50C046BD4603B090BD2D
:1005800000ED00E000E100E080B582B000AF7860EF
:100590007B685A1E80235B049A4201D3012310E03A
:1005A0000A4B7A68013A5A6001235B420321180022
:1005B000FFF77CFF054B00229A60044B07221A606C
:1005C00000231800BD4602B080BDC04610E000E028
:1005D00080B584B000AFB9607A600F217B18021C2F
:1005E0001A70BA687B181B785BB211001800FFF70D
:1005F0005DFFC046BD4604B080BD80B582B000AF8F
:100600000200FB1D1A70FB1D1B785BB21800FFF780
:1006100037FFC046BD4602B080BD80B582B000AF96
:1006200078607B681800FFF7AFFF03001800BD4635
:1006300002B080BD80B586B000AF7860396000231D
:100640007B610023FB6000233B6155E13B681B6835
:1006500001217A6991400A001340FB60FB68002B7E
:1006600000D146E13B685B68022B03D03B685B68C6
:10067000122B23D17B69DA087B6808329200D358A9
:100680003B617B69072213409B000F229A401300B5
:10069000DA433B6913403B613B681A697B69072178
:1006A0000B409B009A4013003A6913433B617B69FE
:1006B000DA087B68083292003969D1507B681B6880
:1006C0003B617B695B0003229A401300DA433B697C
:1006D00013403B613B685B6803221A407B695B0007
:1006E0009A4013003A6913433B617B683A691A6088
:1006F0003B685B68012B0BD03B685B68022B07D023
:100700003B685B68112B03D03B685B68122B30D1D0
:100710007B689B683B617B695B0003229A40130006
:10072000DA433B6913403B613B68DA687B695B00F5
:100730009A4013003A6913433B617B683A699A60B7
:100740007B685B683B6101227B699A401300DA4356
:100750003B6913403B613B685B681B0901221A40FF
:100760007B699A4013003A6913433B617B683A699D
:100770005A607B68DB683B617B695B0003229A40BF
:100780001300DA433B6913403B613B689A687B691D
:100790005B009A4013003A6913433B617B683A69F6
:1007A000DA603B685A6880235B05134000D1A0E003
:1007B000574B9A69564B01210A439A61544B9B69E6
:1007C00001221340BB60BB68524A7B699B0802331D
:1007D0009B009B583B617B69032213409B000F22C7
:1007E0009A401300DA433B6913403B617A689023D7
:1007F000DB059A4219D07B68474A934213D07B6845
:10080000464A93420DD07B68454A934207D07B68A5
:10081000444A934201D1042308E0052306E0032360
:1008200004E0022302E0012300E000237A690321AF
:100830000A40920093403A6913433B6135497B6912
:100840009B0802339B003A695A50374B1B683B6147
:10085000FB68DA433B6913403B613B685A6880237D
:100860005B02134003D03A69FB6813433B612E4B94
:100870003A691A602C4B5B683B61FB68DA433B6961
:1008800013403B613B685A6880239B02134003D0AE
:100890003A69FB6813433B61234B3A695A60224B28
:1008A0009B683B61FB68DA433B6913403B613B68F3
:1008B0005A6880235B03134003D03A69FB681343F3
:1008C0003B61194B3A699A60174BDB683B61FB68E7
:1008D000DA433B6913403B613B685A6880239B03C2
:1008E000134003D03A69FB6813433B610E4B3A69EE
:1008F000DA607B6901337B613B681A687B69DA40A7
:10090000131E00D0A2E6C046C046BD4606B080BD5C
:1009100000100240000001400004004800080048A8
:10092000000C0048001000480004014080B584B06D
:1009300000AF78600A00BB1C1A807B681B69BA1C78
:100940001288134004D00F23FB1801221A7003E011
:100950000F23FB1800221A700F23FB181B781800B6
:10096000BD4604B080BD80B582B000AF786008009D
:100970001100BB1C021C1A807B1C0A1C1A707B1CF9
:100980001B78002B04D0BB1C1A887B689A6103E09B
:10099000BB1C1A887B689A62C046BD4602B080BD07
:1009A00080B582B000AF0200BB1D1A80094B5B69A5
:1009B000BA1D1288134008D0064BBA1D12885A611E
:1009C000BB1D1B88180002F05DFAC046BD4602B090
:1009D00080BDC0460004014080B582B000AF7860A1
:1009E0007B68002B01D1012382E07B6841229B5C64
:1009F000DBB2002B07D17B684022002199547B6831
:100A0000180002F017FD7B684122242199547B686D
:100A10001B681A687B681B6801218A431A607B681F
:100A20005A687B681B6834490A401A617B681B68F6
:100A30009A687B681B6831490A409A607B68DB686A
:100A4000012B08D17B689A687B681B6880210902AA
:100A50000A439A6007E07B689A687B681B68842178
:100A600009020A439A607B68DB68022B04D17B6829
:100A70001B68802212015A607B681B685A687B6879
:100A80001B681F490A435A607B681B68DA687B68E9
:100A90001B681A490A40DA607B681A697B685B69DF
:100AA0001A4311007B689B691A027B681B680A4322
:100AB000DA607B68D9697B681A6A7B681B680A43BD
:100AC0001A607B681B681A687B681B6801210A43EF
:100AD0001A607B6800225A647B6841222021995465
:100AE0007B6800221A637B6842220021995400230C
:100AF0001800BD4602B080BDFFFFFFF0FF7FFFFF83
:100B00000080000290B589B002AFF86008007A60FA
:100B100019000A23FB18021C1A800823FB180A1C60
:100B20001A8000237B61FB6841229B5CDBB2202B97
:100B300000D0F3E0FB6840229B5C012B01D1022333
:100B4000EDE0FB68402201219954FFF771FC03009E
:100B50007B6180231902F8687B69009319230122C5
:100B600000F01AFA031E01D00323D8E0FB684122EB
:100B700021219954FB68422210219954FB680022DC
:100B80005A64FB687A685A62FB680822BA181288AD
:100B90005A85FB6800225A63FB685B8D9BB2FF2B72
:100BA00012D9FB68FF221A85FB681B8DDAB28023FD
:100BB0005C040A23FB181988F86880239B010093C2
:100BC000230000F059FB7AE0FB685B8D9AB2FB686A
:100BD0001A85FB681B8DDAB280239C040A23FB185C
:100BE0001988F86880239B010093230000F044FBE0
:100BF00065E07A69B96AFB68180000F006FA031E1E
:100C000007D0FB685B6C042B01D1012387E0032331
:100C100085E0FB685B6A591CFA6851621A78FB68C8
:100C20001B689A62FB685B8D9BB2013B9AB2FB68C2
:100C30005A85FB681B8D013B9AB2FB681A85FB68DD
:100C40001B8D002B3BD1FB685B8D9BB2002B36D0FC
:100C5000BA6AF8687B69009313000022802100F0D3
:100C60009BF9031E01D0032359E0FB685B8D9BB207
:100C7000FF2B11D9FB68FF221A85FB681B8DDAB2A6
:100C800080235C040A23FB181988F868002300936A
:100C9000230000F0F1FA12E0FB685B8D9AB2FB686A
:100CA0001A85FB681B8DDAB280239C040A23FB188B
:100CB0001988F86800230093230000F0DDFAFB6830
:100CC0005B8D9BB2002B94D17A69B96AFB681800DE
:100CD00000F0DAF9031E07D0FB685B6C042B01D12E
:100CE00001231CE003231AE0FB681B682022DA6161
:100CF000FB681B685A68FB681B680B490A405A600E
:100D0000FB68412220219954FB684222002199541A
:100D1000FB68402200219954002300E002231800C0
:100D2000BD4607B090BDC04600E800FE90B589B052
:100D300002AFF86008007A6019000A23FB18021C51
:100D40001A800823FB180A1C1A8000237B61FB68A9
:100D500041229B5CDBB2202B00D0F4E0FB684022F8
:100D60009B5C012B01D10223EEE0FB6840220121B4
:100D70009954FFF75DFB03007B6180231902F8683B
:100D80007B6900931923012200F006F9031E01D0AC
:100D90000323D9E0FB68412222219954FB684222B7
:100DA00010219954FB6800225A64FB687A685A62E1
:100DB000FB680822BA1812885A85FB6800225A6319
:100DC000FB685B8D9BB2FF2B12D9FB68FF221A8553
:100DD000FB681B8DDAB280235C040A23FB18198898
:100DE000F86890239B010093230000F045FA7BE014
:100DF000FB685B8D9AB2FB681A85FB681B8DDAB2C3
:100E000080239C040A23FB181988F86890239B010F
:100E10000093230000F030FA66E07A69B96AFB6853
:100E2000180000F06DF9031E07D0FB685B6C042B03
:100E300001D1012388E0032386E0FB681B68586A20
:100E4000FB685B6A591CFA685162C2B21A70FB688F
:100E50001B8D013B9AB2FB681A85FB685B8D9BB2C8
:100E6000013B9AB2FB685A85FB681B8D002B3BD176
:100E7000FB685B8D9BB2002B36D0BA6AF8687B6941
:100E8000009313000022802100F086F8031E01D099
:100E9000032359E0FB685B8D9BB2FF2B11D9FB68E4
:100EA000FF221A85FB681B8DDAB280235C040A23BB
:100EB000FB181988F86800230093230000F0DCF980
:100EC00012E0FB685B8D9AB2FB681A85FB681B8D8C
:100ED000DAB280239C040A23FB181988F8680023DF
:100EE0000093230000F0C8F9FB685B8D9BB2002BD8
:100EF00093D17A69B96AFB68180000F0C5F8031E3F
:100F000007D0FB685B6C042B01D101231CE0032399
:100F10001AE0FB681B682022DA61FB681B685A68CC
:100F2000FB681B680A490A405A60FB68412220217D
:100F30009954FB68422200219954FB684022002109
:100F40009954002300E002231800BD4607B090BD6D
:100F500000E800FE80B582B000AF78607B681B6857
:100F60009B6902221340022B03D17B681B6800227D
:100F70009A627B681B689B6901221340012B07D092
:100F80007B681B689A697B681B6801210A439A6128
:100F9000C046BD4602B080BD80B584B000AFF860E9
:100FA000B9603B60FB1D1A701BE03B68013318D031
:100FB0003B68002B07D0FFF73BFA0200BB69D31A4E
:100FC0003A689A420DD2FB68412220219954FB686D
:100FD000422200219954FB684022002199540323A6
:100FE0000FE0FB681B689B69BA681340BA68D31AA4
:100FF0005A425341DBB21A00FB1D1B789A42D4D0EF
:1010000000231800BD4604B080BD80B584B000AF99
:10101000F860B9607A602BE07A68B968FB681800FC
:1010200000F0CCF8031E01D0012329E0BB68013396
:101030001ED0BB68002B07D0FFF7FAF902007B68CF
:10104000D31ABA689A4213D2FB685B6C20221A4307
:10105000FB685A64FB68412220219954FB684222B4
:1010600000219954FB68402200219954032307E092
:10107000FB681B689B6902221340022BCCD1002322
:101080001800BD4604B080BD80B584B000AFF860E4
:10109000B9607A6028E07A68B968FB68180000F0E7
:1010A0008DF8031E01D0012326E0BB68002B07D07A
:1010B000FFF7BEF902007B68D31ABA689A4213D2CE
:1010C000FB685B6C20221A43FB685A64FB68412270
:1010D00020219954FB68422200219954FB68402248
:1010E00000219954032307E0FB681B689B692022B9
:1010F0001340202BCFD100231800BD4604B080BD83
:1011000080B584B000AFF860B9607A6048E07A6872
:10111000B968FB68180000F051F8031E01D00123E4
:1011200046E0FB681B689B6920221340202B1CD1E2
:10113000FB681B682022DA61FB681B685A68FB6841
:101140001B681D490A405A60FB6800225A64FB680C
:10115000412220219954FB68422200219954FB68C6
:10116000402200219954012322E0BB68002B07D0C4
:10117000FFF75EF902007B68D31ABA689A420FD271
:10118000FB685B6C20221A43FB685A64FB684122AF
:1011900020219954FB68402200219954032307E041
:1011A000FB681B689B6904221340042BAFD100230A
:1011B0001800BD4604B080BD00E800FE80B584B0D4
:1011C00000AFF860B9607A60FB681B689B69102209
:1011D0001340102B48D11BE0BB68013318D0BB680B
:1011E000002B07D0FFF724F902007B68D31ABA68F6
:1011F0009A420DD2FB68412220219954FB68422279
:1012000000219954FB6840220021995403232CE0CB
:10121000FB681B689B6920221340202BDCD1FB68F4
:101220001B681022DA61FB681B682022DA61FB6808
:101230001800FFF78FFEFB681B685A68FB681B6885
:101240000C490A405A60FB6804225A64FB68412238
:1012500020219954FB68422200219954FB684022C6
:1012600000219954012300E000231800BD4604B07A
:1012700080BDC04600E800FE90B587B000AFF860C2
:10128000080011007B600A243B19021C1A80092007
:101290003B180A1C1A7000237B61FB681B685B68A3
:1012A0007B617B690E4A13407B613B191B889B0560
:1012B0009A0D3B181B781904FF231B040B401A439B
:1012C0007B681A43BB6A13437A6913437B61FB68EB
:1012D0001B687A695A60C046BD4607B090BDC046DB
:1012E000009800FC80B582B000AF786039607B6800
:1012F00041229B5CDBB2202B38D17B6840229B5C77
:10130000012B01D1022332E07B6840220121995454
:101310007B684122242199547B681B681A687B688A
:101320001B6801218A431A607B681B681A687B6806
:101330001B6811490A401A607B681B6819687B6842
:101340001B683A680A431A607B681B681A687B68E6
:101350001B6801210A431A607B68412220219954AD
:101360007B68402200219954002300E002231800EA
:10137000BD4602B080BDC046FFEFFFFF80B584B020
:1013800000AF786039600023FB607B6841229B5C82
:10139000DBB2202B39D17B6840229B5C012B01D131
:1013A000022333E07B684022012199547B6841226B
:1013B000242199547B681B681A687B681B6801218B
:1013C0008A431A607B681B681B68FB60FB68114AD4
:1013D0001340FB603B681B02FA681343FB607B68A9
:1013E0001B68FA681A607B681B681A687B681B6850
:1013F00001210A431A607B684122202199547B68AD
:10140000402200219954002300E002231800BD4629
:1014100004B080BDFFF0FFFF80B584B000AF7860FE
:101420007B68002B01D1012336E07B681B681C4AD6
:101430001A607B681B681B4A1A607B681B687A68A5
:1014400052685A607B681B687A6892689A60FEF7F7
:10145000EFFF0300FB6008E0FEF7EAFF0200FB6815
:10146000D31A272B01D9032316E07B681B68DB689E
:10147000002BF1D17B681B681A697B68DB689A4294
:1014800005D07B681B687A68D2681A6103E07B68C4
:101490001B68054A1A6000231800BD4604B080BDD1
:1014A000CCCC000055550000AAAA000080B582B03F
:1014B00000AF78607B681B68034A1A60002318003D
:1014C000BD4602B080BDC046AAAA000080B586B065
:1014D00000AF786000233B617B681B6801221340EA
:1014E00000D18DE0C44B5B680C221340042B0ED05E
:1014F000C14B5B680C221340082B16D1BE4B5A68B7
:10150000C0235B021A4080235B029A420DD1BA4B82
:101510001A6880239B02134000D170E07B685B68EF
:10152000002B00D06BE0012327E37B685B68012B75
:1015300007D1B14B1A68B04B802149020A431A60A7
:101540002FE07B685B68002B0CD1AB4B1A68AA4B71
:10155000AA490A401A60A84B1A68A74BA8490A4032
:101560001A601EE07B685B68052B0ED1A24B1A68DF
:10157000A14B8021C9020A431A609F4B1A689E4BF7
:10158000802149020A431A600BE09B4B1A689A4B70
:101590009A490A401A60984B1A68974B98490A4032
:1015A0001A607B685B68002B14D0FEF741FF0300D4
:1015B0003B6108E0FEF73CFF02003B69D31A642B55
:1015C00001D90323D9E28C4B1A6880239B02134074
:1015D000F0D015E0FEF72CFF03003B6108E0FEF7BA
:1015E00027FF02003B69D31A642B01D90323C4E20D
:1015F000814B1A6880239B021340F0D100E0C04663
:101600007B681B680222134000D16CE07A4B5B6858
:101610000C2213400ED0784B5B680C221340082B31
:101620001FD1754B5A68C0235B021A4080231B02EE
:101630009A4216D1704B1B680222134005D07B687A
:10164000DB68012B01D0012397E26B4B1B68F8226A
:10165000934319007B681B69DA00674B0A431A60E1
:1016600041E07B68DB68002B24D0634B1A68624B37
:1016700001210A431A60FEF7DBFE03003B6108E02C
:10168000FEF7D6FE02003B69D31A022B01D90323D1
:1016900073E2594B1B6802221340F1D0564B1B6872
:1016A000F822934319007B681B69DA00524B0A4306
:1016B0001A6018E0504B1A684F4B01218A431A6098
:1016C000FEF7B6FE03003B6108E0FEF7B1FE020044
:1016D0003B69D31A022B01D903234EE2464B1B6808
:1016E00002221340F1D17B681B680822134036D0D8
:1016F0007B68DB69002B19D03F4B5A6A3E4B0121B6
:101700000A435A62FEF794FE03003B6108E0FEF7CD
:101710008FFE02003B69D31A022B01D903232CE26E
:10172000354B5B6A02221340F1D018E0324B5A6A03
:10173000314B01218A435A62FEF77AFE03003B6176
:1017400008E0FEF775FE02003B69D31A022B01D9AF
:10175000032312E2284B5B6A02221340F1D17B681B
:101760001B680422134000D1B4E017203B1800226C
:101770001A70214BDA6980235B05134010D11E4B90
:10178000DA691D4B802149050A43DA611A4BDA698F
:1017900080235B051340FB60FB683B1801221A7035
:1017A000184B1A6880235B0013401AD1154B1A6836
:1017B000144B802149000A431A60FEF739FE0300EA
:1017C0003B6108E0FEF734FE02003B69D31A642B4C
:1017D00001D90323D1E10B4B1A6880235B0013402E
:1017E000F0D07B689B68012B0ED1034B1A6A024B29
:1017F00001210A431A6235E000100240FFFFFEFF9C
:10180000FFFFFBFF007000407B689B68002B0CD142
:10181000CA4B1A6AC94B01218A431A62C74B1A6A1A
:10182000C64B04218A431A621CE07B689B68052B27
:101830000CD1C24B1A6AC14B04210A431A62BF4B36
:101840001A6ABE4B01210A431A620BE0BB4B1A6AAB
:10185000BA4B01218A431A62B84B1A6AB74B04216A
:101860008A431A627B689B68002B14D0FEF7E0FD68
:1018700003003B6109E0FEF7DBFD02003B69D31A80
:10188000AF4A934201D9032377E1AC4B1B6A022292
:101890001340F0D013E0FEF7CBFD03003B6109E0FD
:1018A000FEF7C6FD02003B69D31AA54A934201D94F
:1018B000032362E1A14B1B6A02221340F0D11723DC
:1018C000FB181B78012B05D19C4BDA699B4B9D497A
:1018D0000A40DA617B681B681022134063D07B6882
:1018E0005B69012B2AD1954B5A6B944B04210A4317
:1018F0005A63924B5A6B914B01210A435A63FEF78C
:1019000097FD03003B6108E0FEF792FD02003B6992
:10191000D31A022B01D903232FE1884B5B6B0222E0
:101920001340F1D0854B5B6BF822934319007B6821
:101930009B69DA00814B0A435A6334E07B685B6938
:10194000053311D17D4B5A6B7C4B04218A435A637A
:101950007A4B5B6BF822934319007B689B69DA0032
:10196000764B0A435A631EE0744B5A6B734B042147
:101970000A435A63714B5A6B704B01218A435A6375
:10198000FEF756FD03003B6108E0FEF751FD020043
:101990003B69D31A022B01D90323EEE0674B5B6B43
:1019A00002221340F1D17B681B68202213405CD0D7
:1019B000624B5B680C2213400C2B0ED05F4B5B68B4
:1019C0000C221340082B14D15C4B5A68C0235B02D5
:1019D0001A40C0235B029A420BD1584B5A6B8023AA
:1019E0005B02134040D07B681B6A012B3CD0012373
:1019F000C3E07B681B6A002B1BD0504B5A6B4F4BCC
:101A0000802149020A435A63FEF712FD03003B613D
:101A100008E0FEF70DFD02003B69D31A022B01D945
:101A20000323AAE0454B5A6B80235B021340F0D09E
:101A30001BE0424B5A6B414B43490A405A63FEF745
:101A4000F7FC03003B6108E0FEF7F2FC02003B6993
:101A5000D31A022B01D903238FE0384B5A6B802312
:101A60005B021340F0D100E0C0467B685B6A002B4C
:101A700000D181E0314B5B680C221340082B00D170
:101A800078E07B685B6A022B4CD12C4B1A682B4B9D
:101A90002E490A401A60FEF7CBFC03003B6108E0C8
:101AA000FEF7C6FC02003B69D31A022B01D90323BF
:101AB00063E0224B1A6880239B041340F0D11F4B34
:101AC000DB6A0F22934319007B681A6B1B4B0A4396
:101AD000DA621A4B5B681E4A134019007B68DA6AA7
:101AE0007B689B6A1A43154B0A435A60134B1A686A
:101AF000124B802149040A431A60FEF799FC030047
:101B00003B6108E0FEF794FC02003B69D31A022B0C
:101B100001D9032331E0094B1A6880239B04134049
:101B2000F0D029E0054B1A68044B08490A401A60B6
:101B3000FEF77EFC03003B6115E0C046001002404A
:101B400088130000FFFFFFEFFFFFFEFFFFFFFFFE18
:101B5000FF7FC2FFFEF76CFC02003B69D31A022B29
:101B600001D9032309E0074B1A6880239B04134023
:101B7000F0D101E0012300E000231800BD4606B0CB
:101B800080BDC0460010024080B584B000AF7860D0
:101B900039600023FB607B4B1B68012213403A68CD
:101BA0009A4211D9774B1B68012293431900754B58
:101BB0003A680A431A60734B1B68012213403A6863
:101BC0009A4201D00123D8E07B681B6802221340AF
:101BD00009D06D4B5B68F022934319007B689A68CB
:101BE000694B0A435A607B681B680122134000D18D
:101BF00089E07B685B68012B07D1634B1A688023FF
:101C00009B02134020D10123B7E07B685B68022B65
:101C100007D15D4B1A6880239B04134014D1012324
:101C2000ABE07B685B68032B07D1574B5A6B802373
:101C30005B02134008D101239FE0534B1B68022233
:101C4000134001D1012398E04F4B5B68032293437B
:101C500019007B685A684C4B0A435A60FEF7E8FB50
:101C60000300FB607B685B68012B11D109E0FEF784
:101C7000DFFB0200FB68D31A444A934201D90323D5
:101C80007BE0414B5B680C221340042BEFD13AE020
:101C90007B685B68022B11D109E0FEF7C9FB0200EB
:101CA000FB68D31A394A934201D9032365E0364BC6
:101CB0005B680C221340082BEFD124E07B685B6843
:101CC000032B1BD109E0FEF7B3FB0200FB68D31A1C
:101CD0002E4A934201D903234FE02B4B5B680C2221
:101CE00013400C2BEFD10EE0FEF7A2FB0200FB68C5
:101CF000D31A264A934201D903233EE0224B5B6864
:101D00000C221340F0D11F4B1B68012213403A688C
:101D10009A4211D21B4B1B68012293431900194BA5
:101D20003A680A431A60174B1B68012213403A684D
:101D30009A4201D0012320E07B681B6804221340F3
:101D400009D0114B5B68124A134019007B68DA68AE
:101D50000D4B0A435A6000F021F801000A4B5B6802
:101D60001B090F2213400B4AD35C0A00DA400A4BCE
:101D70001A600020FEF734FB00231800BD4604B0B3
:101D800080BDC046002002400010024088130000C1
:101D9000FFF8FFFFA48F0008A80B002090B58FB0BC
:101DA00000AF1423FB18384A13CA13C312681A6011
:101DB0003B1D364A13CA13C312681A600023FB6224
:101DC0000023BB6200237B6300237B6200233B6311
:101DD0002F4B5B68FB62FB6A0C2213400C2B47D035
:101DE00049D8042B02D0082B03D044E0294B3B6395
:101DF00044E0FB6A9B0C0F2213401422BA18D35CF8
:101E00007B62234BDB6A0F2213403A1DD35CBB621B
:101E1000FA6AC0235B021A4080235B029A4209D10E
:101E2000B96A1C48FEF74CF903001A007B6A534359
:101E30007B631AE0FA6AC0235B021A40C0235B028C
:101E40009A4209D1B96A1448FEF73AF903001A0018
:101E50007B6A53437B6308E0B96A0E48FEF730F9AA
:101E600003001A007B6A53437B637B6B3B6305E093
:101E7000094B3B6302E0074B3B63C0463B6B1800DA
:101E8000BD460FB090BDC046788F0008888F00080F
:101E90000010024000127A00006CDC0280B500AF36
:101EA000024B1B681800BD4680BDC046A80B002031
:101EB00080B586B000AF786000233B610023FB60F3
:101EC0007B681A6880235B02134000D18EE01720E4
:101ED0003B1800221A706E4BDA6980235B051340B1
:101EE00010D16B4BDA696A4B802149050A43DA61EC
:101EF000674BDA6980235B051340BB60BB683B1806
:101F000001221A70634B1A6880235B0013401AD1B8
:101F1000604B1A685F4B802149000A431A60FEF744
:101F200087FA03003B6108E0FEF782FA02003B6992
:101F3000D31A642B01D90323A6E0564B1A688023D9
:101F40005B001340F0D0524B1A6AC0239B00134031
:101F5000FB60FB68002B34D07B685A68C0239B0071
:101F60001340FA689A422CD0494B1B6A4A4A1340E4
:101F7000FB60474B1A6A464B802149020A431A62AA
:101F8000434B1A6A424B45490A401A62404BFA6871
:101F90001A62FB680122134013D0FEF749FA0300CE
:101FA0003B6109E0FEF744FA02003B69D31A3C4A60
:101FB000934201D9032367E0354B1B6A0222134089
:101FC000F0D0334B1B6A344A134019007B685A68BF
:101FD0002F4B0A431A621723FB181B78012B05D1DC
:101FE0002B4BDA692A4B2F490A40DA617B681B6860
:101FF0000122134009D0264B1B6B03229343190087
:102000007B689A68224B0A431A637B681B6802222A
:10201000134009D01E4B1B6B234A134019007B68E9
:10202000DA681B4B0A431A637B681B682022134043
:1020300009D0174B1B6B1022934319007B681A6958
:10204000134B0A431A637B681A6880239B02134070
:1020500009D00F4B1B6B8022934319007B689A6950
:102060000B4B0A431A637B681A688023DB0013401A
:1020700009D0074B1B6B4022934319007B685A69B8
:10208000034B0A431A6300231800BD4606B080BD07
:102090000010024000700040FFFCFFFFFFFFFEFF4A
:1020A00088130000FFFFFFEFFFFFFCFF80B586B045
:1020B00002AF0200FB1D1A703B1D0A1C1A8008218A
:1020C0007B1800221A6000221A717B1804221A70F1
:1020D0007B1810225A703B1D1B881B0A9BB2DAB278
:1020E0007B189A703B1D1B88DAB27B18DA70FB1DD7
:1020F0001B785A1E9341DBB21A007B181A717A18AA
:1021000005486423009305231021FEF7FBFCC0461D
:10211000BD4604B080BDC046A80D002080B586B085
:1021200002AF78600A00BB1C1A8008217B180022CD
:102130001A6000225A607B1807221A707B1810223E
:102140005A70BB1C1B881B0A9BB2DAB27B189A70B0
:10215000BB1C1B88DAB27B18DA700F4B7A681A60E6
:102160000D4BDA787B181A710B4B9A787B185A71E1
:10217000094B5A787B189A71074B1A787B18DA71D9
:102180007A1806486423009308231021FEF7BAFC4E
:10219000C046BD4604B080BDA00D0020A80D0020A3
:1021A00090B589B002AF0C243A19354864230093E6
:1021B00008231021FEF7BAFD2200BB181B78012B63
:1021C0005BD9BB185B78202B57D1BB181B78042B2D
:1021D00008D1BB1802330B22BA18B91C180000F042
:1021E00055F80BE00C22BB181B78052B45D1BB180A
:1021F00002333A1DB91C180000F063F81723FB18CE
:1022000000221A7032E017217B181A781D4B9200B9
:10221000D3585A88BB1C1B889A4221D17B181A7844
:10222000184B9200D3581B78002B09D17B181A78D1
:10223000144B9200D3580B22BA1812781A710FE07F
:1022400017217B181A780F4B9200D3581B78012B5B
:1022500006D17B181A780B4B9200D3587A689A6093
:1022600017217B181A787B1801321A70064B1B78DD
:102270001722BA1812789A42C5D3BD4607B090BD4E
:10228000A80D0020300000204400002080B584B05C
:1022900000AFF860B9607A60FB681B781B021AB265
:1022A000FB6801331B781BB213431BB29AB2BB68A5
:1022B0001A80FB689A787B681A70C046BD4604B0E5
:1022C00080BD80B586B000AFF860B9607A60FB6809
:1022D0001B781B021AB2FB6801331B781BB2134335
:1022E0001BB29AB2BB681A80FB6802331B781B02D0
:1022F0001AB2FB6803331B781BB213431AB21621C0
:102300007B181A807B181B88180000F007F8021C45
:102310007B681A60C046BD4606B080BDF0B585B08A
:1023200000AF0200BB1D1A800E203B18BA1D128898
:102330005205520D1A80BB1D1B88DB0A9BB2DAB214
:102340000D26BB190F210A401A703B181B88180074
:1023500002F0AEFB134A144B02F08AF902000B00A4
:1023600014001D00BB191B78180002F0CDFB020001
:102370000B0000208021C90505F0D2FC02000B00F3
:102380002000290002F074F902000B00100019006F
:1023900002F020FC031CBB60BB68181CBD4605B0E6
:1023A000F0BDC0467B14AE47E17A843FB0B584B03F
:1023B00000AF78600A00FB1C1A700F23FB18002284
:1023C0001A704CE00E23FB1807221A703CE02A4BCF
:1023D0001B681869284B1B68998A0F23FB181B7808
:1023E0007A68D3181B785BB20E257A19127852B22C
:1023F00001249440220052B213405BB2DBB21A00B7
:10240000FEF7B1FA0120FEF71DF81B4B1B68986818
:10241000194B1B689B8901221900FEF7A4FA0120C1
:10242000FEF710F8144B1B689868134B1B689B89C8
:1024300000221900FEF797FA7B191B785BB2DBB21A
:10244000013BDAB27B191A700E23FB181B787F2B25
:10245000BDD90F217B181A787B1801321A700F230F
:10246000FA18FB1C12781B789A42ABD3C046C046C0
:10247000BD4604B0B0BDC046A40D002090B585B0E7
:1024800000AF78600A00FB1C1A700F23FB180022B3
:102490001A705FE00F23FB181B787A68D3180022AC
:1024A0001A700E23FB1807221A7048E00F243B19FC
:1024B0001B787A68D31819783B191B787A68D21878
:1024C0000B1CDB18DBB21370284B1B689868274B7A
:1024D0001B689B8901221900FEF745FA0120FDF7D0
:1024E000B1FF224B1B689A69204B1B689B8B19001C
:1024F0001000FEF71BFA030018003B191B787A68DE
:10250000D3181A783B191B787968CB180243D2B2DA
:102510001A700120FDF796FF144B1B689868134B47
:102520001B689B8900221900FEF71DFA0E217B18FB
:102530001B785BB2DBB2013BDAB27B181A700E2358
:10254000FB181B787F2BB1D90F217B181A787B18C9
:1025500001321A700F23FA18FB1C12781B789A426A
:1025600098D3C046C046BD4605B090BDA40D00201E
:1025700080B582B000AF39601100FB1D021C1A70DB
:10258000BB1D0A1C1A70FB1D1A78FB1D1A70124B1A
:102590001B681868104B1B689B8800221900FEF707
:1025A000E2F9FB1D01211800FFF700FFBB1D1A789F
:1025B0003B6811001800FFF761FF074B1B681868A4
:1025C000054B1B689B8801221900FEF7CCF9C04619
:1025D000BD4602B080BDC046A40D002080B582B0CB
:1025E00000AF0200FB1D1A70BB1D0A1C1A70FB1DF8
:1025F0001B78802252421343DAB2FB1D1A70114B32
:102600001B6818680F4B1B689B8800221900FEF797
:10261000AAF9FB1D01211800FFF7C8FEBB1D01210F
:102620001800FFF7C3FE074B1B681868054B1B68B3
:102630009B8801221900FEF796F9C046BD4602B0FC
:1026400080BDC046A40D002090B585B000AF02004B
:10265000FB1D1A700F243B19012219000020FFF7FF
:1026600087FFFB1D1B78002B09D021007B181B78EE
:10267000802252421343DAB27B181A7007E00F210E
:102680007B181B787F221340DAB27B181A700F2355
:10269000FB181B7819000020FFF7A0FFC046BD46BD
:1026A00005B090BD90B585B000AF0200FB1D1A705B
:1026B0000F243B19012219000020FFF759FFFB1DD1
:1026C0001B78002B08D021007B181B784022134375
:1026D000DAB27B181A7007E00F217B181B784022B2
:1026E0009343DAB27B181A700F23FB181B7819007A
:1026F0000020FFF773FFC046BD4605B090BD90B502
:1027000085B000AF0200FB1D1A700F243B19012297
:1027100019000020FFF72CFFFB1D1B78032B08D1AD
:1027200021007B181B7810221343DAB27B181A7031
:1027300007E00F217B181B7810229343DAB27B1835
:102740001A700F23FB181B7819000020FFF746FFB3
:10275000C046BD4605B090BD80B582B000AFFB1D40
:10276000012219000020FFF703FFFB1D1B78202228
:102770001343DAB2FB1D1A70FB1D1B7819000020F1
:10278000FFF72CFFC046BD4602B080BD80B582B0C9
:1027900000AF78600A00FB1C1A70184B7A681A6048
:1027A000164B1B681868154B1B689B880122190083
:1027B000FEF7D9F8114B1B689868104B1B689B8972
:1027C00001221900FEF7CFF80C4B1B6818690B4B60
:1027D0001B689B8A01221900FEF7C5F8FB1C1B78B9
:1027E0001800FFF78CFF0020FFF72EFF0020FFF7F7
:1027F00059FFC046BD4602B080BDC046A40D0020B2
:1028000080B584B000AF0120FFF71EFF0A20FDF75E
:1028100019FEFFF7A1FF4120FDF714FE3B00022245
:1028200019000120FFF7A4FE3B001B789AB20E208E
:102830003B1812021A803B005B7899B23B183A1899
:1028400012880A431A803B1801003A18128852086D
:102850001A807B181B88180001F04EFC031C1749D6
:10286000181C01F0DDF9031C8E21C905181C01F0AC
:1028700055F8031CBB601249B86801F04FF8031CFF
:10288000FE218905181C01F0BBFA031C181C02F07C
:102890005DF90C4A0C4B01F069FC02000B001000C2
:1028A000190002F097F9031C7B600020FFF7CCFEB3
:1028B0007B68181CBD4604B080BDC0460000D743ED
:1028C0000000C8428F17D2E1218C6F3FB0B5A6B08F
:1028D00000AFFDF771FD00F08BF900F043FA00F056
:1028E000E1F900F01FFA80231B01BA4A1900100019
:1028F00000F018FB80239B01B64A1900100000F07D
:1029000025FB80235B01B34A1900100000F05AFB3D
:102910008023DB00AF4A1900100000F03FFB80234A
:102920001B02AC4A1900100000F024FB00F012FC5E
:1029300068217B1840229A837B189022D2059A61E5
:102940007B1880229A827B189022D2051A617B180C
:1029500020229A817B189022D2059A607B1810223F
:102960009A807B189022D2051A607B1803211800E8
:10297000FFF70CFF00239422BA18136038243B1988
:10298000180030231A00002102F0D4F921007B182E
:1029900004221A707B1801225A807B1802229A8026
:1029A0007B180422DA807B1808221A817B18902277
:1029B000D205DA607B189022D2051A617B1890222A
:1029C000D2055A617B189022D2059A617B180422A5
:1029D0001A847B1805225A847B1806229A847B1855
:1029E0000722DA843B1D180034231A00002102F06C
:1029F000A1F93B1D04221A703B1D01225A803B1D88
:102A000002229A803B1D0422DA803B1D08221A8193
:102A10003B1D704ADA603B1D6E4A1A613B1D6D4AD0
:102A20005A613B1D6B4A9A613B1D6B4A1A623B1D02
:102A30006A4A5A623B1D6A4A9A623B1D694ADA62D7
:102A40009323FB1800221A70FFF7DAFE031C8C2276
:102A5000BA18136093257B191B78092B21D9624979
:102A600094243B19186800F059FF031C3A191360AD
:102A70003B191B680821181CFFF750FB3B1918680D
:102A800001230922022100F015FC3B191B68181CC8
:102A900000F00AFA7B1900221A7000233A19136019
:102AA00010E08C23FB18196894243B19186800F077
:102AB000CDFD031C3A19136093217B181A787B18FB
:102AC00001321A709223FB1800221A701FE0922123
:102AD0007B181B783A1D02339B00D3180433186807
:102AE0000C003B191B783A1D5B00D3180233198880
:102AF0003B191A783B1D08329200D3581B791A00F3
:102B0000FDF731FF3B191A783B1901321A703B1D52
:102B10001B789222BA1812789A42D8D39123FB18C4
:102B200000221A7044E091243B191B7838257A1949
:102B300002339B00D318043318683B191B787A19A9
:102B40005B00D31802331B881900FDF7EFFE03006A
:102B50005A425341DAB28B203B181A703B191B784A
:102B60007A192A21D3185B181B783A1812789A42DE
:102B700018D03B191B787A192A21D3185B183A18F8
:102B800012781A703B191B787A192A21D3185B180E
:102B900018783B191A787B1910325200D35A190051
:102BA000FFF784FA91217B181A787B1801321A708A
:102BB0003823FB181B789122BA1812789A42B2D3A4
:102BC0000A4B1800FEF772FCFA239B001800FDF771
:102BD00039FC39E700040048040E00200000002002
:102BE0000C0000201800002000002041F40D0020FF
:102BF00090B599B000AF2C243B19180034231A006B
:102C0000002102F097F81C23FB18180010231A006B
:102C1000002102F08FF83B0018001C231A0000214D
:102C200002F088F821007B180A221A607B18012222
:102C3000DA607B1810221A617B180122DA617B1896
:102C400000225A627B181800FEF740FC031E01D0D8
:102C500000F062F91C217B1807221A607B18002201
:102C60005A607B1800229A607B180022DA607B1879
:102C700000211800FEF788FF031E01D000F04CF978
:102C80003B0020221A603B0000221A613B00180022
:102C9000FFF70EF9031E01D000F03EF9C046BD4615
:102CA00019B090BD80B500AF1B4B1C4A1A601A4B7F
:102CB0001B4A5A60184B00229A60174B0122DA60B7
:102CC000154B00221A61144B00225A61124B00224C
:102CD0009A61114B0022DA610F4B00221A620E4BEF
:102CE0001800FDF779FE031E01D000F015F90A4B1C
:102CF00000211800FEF7F6FA031E01D000F00CF9CF
:102D0000054B00211800FEF739FB031E01D000F02F
:102D100003F9C046BD4680BDA80D00200054004008
:102D20007C1D100080B500AF0C4B0D4A1A600B4B98
:102D300006225A60094BFA221201DA60074BFA2286
:102D400012019A60054B1800FEF766FB031E01D0C6
:102D500000F0E2F8C046BD4680BDC046F40D00203C
:102D60000030004090B589B000AF0C243B1918002A
:102D700014231A00002101F0DDFF3E4B5A693D4B40
:102D8000802189020A435A613A4B5A6980239B0287
:102D90001340BB60BB68374B5A69364B8021C90270
:102DA0000A435A61334B5A698023DB0213407B602C
:102DB0007B689023DB050022B0211800FDF7D3FDCE
:102DC0002D492E4B00221800FDF7CDFD3B194F2257
:102DD0001A603B1900225A603B1900229A603A1986
:102DE0009023DB0511001800FDF724FC3B19B022ED
:102DF0001A603B1901225A603B1900229A603B1964
:102E00000022DA603A199023DB0511001800FDF763
:102E100011FC3B19184A1A603B1901225A603B19F0
:102E200000229A603B190022DA603B19134A19000C
:102E30001000FDF7FFFB21007B18802212011A60B1
:102E40007B180F4A5A607B1800229A607A189023E8
:102E5000DB0511001800FDF7EDFB00220021072023
:102E6000FDF7B6FB0720FDF7C8FBC046BD4609B01D
:102E700090BDC046001002400FBC00000004004896
:102E80000000111080B582B000AF0200BB1D1A8097
:102E9000BB1D1A8880231B019A4201D1FFF780F9DC
:102EA000C046BD4602B080BD80B584B000AF78603A
:102EB000174BFB60F9687868FDF77AF9031E0BD0B1
:102EC000144B1B78002B07D1124B01221A700A21D8
:102ED0000120FFF7EBF817E0FE218905F86800F004
:102EE0008FFF031C191C7868FDF744F9031E00D1FD
:102EF0000AE0084B1B78002B06D0064B00221A7004
:102F00000A210020FFF7D2F8C046BD4604B080BDBC
:102F10000000F041100E002080B500AFC046BD4655
:102F200080BD000080B582B000AF78600A00BB1C95
:102F30001A80054B7A681A60034BBA1C12889A8073
:102F4000C046BD4602B080BD140E002080B582B0E0
:102F500000AF78600A00BB1C1A80054B7A689A6043
:102F6000034BBA1C12889A81C046BD4602B080BD90
:102F7000140E002080B582B000AF78600A00BB1C40
:102F80001A80054B7A689A61034BBA1C12889A839F
:102F9000C046BD4602B080BD140E002080B582B090
:102FA00000AF78600A00BB1C1A80054B7A681A6172
:102FB000034BBA1C12889A82C046BD4602B080BD3F
:102FC000140E002080B582B000AF78600A00BB1CF0
:102FD0001A80054B7A681A62034BBA1C12889A84CD
:102FE000C046BD4602B080BD140E0020B0B584B00E
:102FF00000AF78600A00BB1C1A80304B186A2F4B58
:103000009B8C00221900FDF7AEFC0E23FB1800225A
:103010001A8040E00D23FB1807221A7030E0274B7E
:103020009869264B998B0E23FB181B887A68D31856
:103030001B785BB20D257A19127852B201249440A4
:10304000220052B213405BB2DBB21A00FDF78BFCD8
:103050001A4B1869194B9B8A01221900FDF783FC52
:10306000164B1869154B9B8A00221900FDF77BFC53
:103070007B191B785BB2DBB2013BDAB27B191A70A9
:103080000D23FB181B787F2BC9D90E217B181A88BA
:103090007B1801321A800E23FA18BB1C12881B8879
:1030A0009A42B7D3054B186A044B9B8C0122190036
:1030B000FDF759FCC046BD4604B0B0BD140E00205B
:1030C00080B582B000AF786008001100FB1C021CC4
:1030D0001A703B000A1C1A80FB1C1B78002B0FD1B6
:1030E000114B9868104B9B8900221900FDF73BFC9F
:1030F0003B001A887B6811001800FFF777FF0EE08D
:10310000094B9868084B9B8901221900FDF72BFC9D
:103110003B001A887B6811001800FFF767FFC04664
:10312000BD4602B080BDC046140E002080B582B0FE
:1031300000AF0200FB1D1A70BB1D0A1C1A70BB1DDC
:103140001978FB1D01221800FFF7BAFFC046BD46E3
:1031500002B080BD80B500AF1A4B1868194B9B8830
:1031600000221900FDF7FFFB164B1868154B9B88D2
:1031700001221900FDF7F7FB124B186A114B9B8CCB
:1031800001221900FDF7EFFB00212120FFF7CEFF00
:103190000021B820FFF7CAFF00210420FFF7C6FF77
:1031A00000211420FFF7C2FF00212020FFF7BEFFFF
:1031B00000210C20FFF7BAFF00F0D8F8C046BD464A
:1031C00080BDC046140E002080B584B000AF020060
:1031D000FB1D1A700A4B5B68FA1D1278203A0849E9
:1031E00009784A439B18FB60054B1B789AB2FB6831
:1031F00001211800FFF764FFC046BD4604B080BD42
:10320000A00B002080B586B000AF786008001100E8
:10321000FB1C021C1A70BB1C0A1C1A707B6818006D
:10322000FDF702F80300FB6000237B6137E0204BD1
:103230005B687A6979688A181278203A92019B183B
:10324000BB6000233B6124E0194B1B787A69D2B242
:103250005343DAB2FB1C1B78D318D8B23B69DAB2FD
:10326000BB1C1B78D318DBB2190000F09FF8104B81
:103270001B781A003B6953431A00BB6898180C4B23
:103280001B789BB21A000121FFF71AFF3B6901333B
:103290003B613B69032BD7DD7B6901337B617A6935
:1032A000FB689A42C3DBC046C046BD4606B080BD3F
:1032B000980B002090B585B000AF78600C0010002E
:1032C0001900FB1C221C1A70BB1C021C1A707B1CF0
:1032D0000A1C1A70786801F039FC02000B000F49D3
:1032E0000824381902F0A8F97B1C1B78012B08D19F
:1032F000BB1C1A78FB1C19783B191800FFF782FFDA
:1033000008E0BB1C1A78FB1C19780823FB1818006E
:1033100000F006F8C046BD4605B090BD988F000885
:1033200080B582B000AF786008001100FB1C021C61
:103330001A70BB1C0A1C1A70BB1C1A78FB1C1B7869
:103340001100180000F032F806E07B685A1C7A6021
:103350001B781800FFF738FF7B681B78002BF4D12F
:10336000C046C046BD4602B080BD000080B5FEB07C
:1033700000AF0D4BFC2252009446BC446344002233
:103380001A600433FA2252000021180001F0D2FC26
:10339000FC235A003B0001211800FFF791FEC046B4
:1033A000BD467EB080BDC04608FEFFFF80B582B03E
:1033B00000AF0200FB1D1A70BB1D0A1C1A70FB1D1A
:1033C0001B78802252421343DBB200211800FFF722
:1033D000ADFEBB1D1B7840221343DBB20021180059
:1033E000FFF7A4FEC046BD4602B080BD80B582B0E6
:1033F00000AF0F4B9A690E4B01210A439A610C4BA7
:103400009B69012213407B607B68094BDA69084B9A
:10341000802149050A43DA61054BDA6980235B059F
:1034200013403B603B68C046BD4602B080BDC0460D
:103430000010024090B58BB000AF786014243B19A7
:10344000180014231A00002101F074FC7B681B682B
:103450001C4A934231D11C4B5A691B4B8021C90233
:103460000A435A61184B5A698023DB0213403B61BF
:103470003B6921007B18C0221A607B1812225A6017
:103480007B1801229A607B180322DA607B180122E4
:103490001A617B180D4A19001000FDF7CBF80A4B92
:1034A000DA69094B802189030A43DA61064BDA693C
:1034B00080239B031340FB60FB68C046BD460BB0F6
:1034C00090BDC04600540040001002400004004877
:1034D00080B500AFC046BD4680BD80B500AFFEE7F9
:1034E00080B500AFC046BD4680BD80B500AFC046C8
:1034F000BD4680BD80B500AFFCF78EFFC046BD461F
:1035000080BD80B500AF80231B011800FDF748FA8D
:10351000C046BD4680BD000080B584B000AF786075
:10352000114B1B68002B02D10F4B104A1A600E4B37
:103530001B68FB600C4B1A687B68D2186B469A427A
:1035400007D901F0CDFB03000C221A6001235B4276
:1035500006E0054B1A687B68D218034B1A60FB68BB
:103560001800BD4604B080BD3C0E0020580E00205F
:1035700080B500AF1A4B1A68194B01210A431A6033
:10358000174B5A68164B17490A405A60144B1A6871
:10359000134B15490A401A60114B1A68104B134916
:1035A0000A401A600E4B5A680D4B11490A405A6086
:1035B0000B4BDA6A0A4B0F218A43DA62084B1A6B0B
:1035C000074B0C490A401A63054B5A6B044B012107
:1035D0008A435A63024B00229A60C046BD4680BDB2
:1035E000001002400CB8FF08FFFFF6FEFFFFFBFFD4
:1035F000FFFFC0FF2CFEFCFF0D4885460D480E491D
:103600000E4A002302E0D458C4500433C4188C423C
:10361000F9D30B4A0B4C002301E013600432A242A1
:10362000FBD3FFF7A5FF01F061FBFFF74FF9FEE7C2
:103630000040002000000020800D00203092000893
:10364000800D0020580E0020FEE70000F7B5420272
:10365000530A9C464B024400C50F580A019048008B
:10366000240E000E9209C90F9B09261A8D4200D024
:103670009EE0002E2CDD002818D1002B13D0013E37
:10368000002E0ED19B1820005A012FD50130FF28A3
:1036900000D135E101229F491A405B080B401343DA
:1036A00024E0FF2C07D1130020001FE0FF2CFAD0EC
:1036B0008021C9040B4301211B2E07DC19002020A7
:1036C000F140861BB340581E834119438B18DAE73B
:1036D000002E3ED0061B002C29D1002A06D0013E28
:1036E000002E01D19B18CFE7FF2825D15A0704D01F
:1036F0000F221A40042A00D004335A0105D50130A4
:10370000FF2800D104E1844A1340DB08FF2804D1DC
:10371000002B02D08022D2031343FF24C005E4050E
:103720005B0220405B0A0343E8071843FEBDFF2805
:10373000DCD08021C9040A4301211B2E07DC1100C3
:103740002024F140A61BB240541EA24111435B1835
:103750009AE7FE20FE27611C0840394221D1002C47
:103760000DD1002AC2D0002B00D1CBE09B188022C3
:10377000D2041342BAD0684A01201340B6E7FF20B2
:10378000002AB3D0002B00D1BCE080236246DB03CB
:103790001A4203D0019A1A4200D194466346DB00D4
:1037A00078E0FF2900D1AAE0D31808005B089DE764
:1037B000002E26DD002812D1002B00D173E7013E38
:1037C000002E08D1D31A20005A0100D48EE79B01A5
:1037D00004009E0976E0FF2C06D113005AE0FF2C6E
:1037E000FBD08021C9040B4301211B2E07DC1900EB
:1037F0002020F140861BB340581E83411943531AC1
:10380000E1E7002E23D00D00061B002C18D1002A62
:1038100000D16BE7013E002E01D19B1AD4E7FF28AF
:1038200000D163E701241B2E07DC14002025F4409F
:10383000AE1BB240551EAA4114430D001B1BC3E72B
:10384000FF2800D152E78024E4042243EAE7FE2067
:10385000FE27661C30403E422DD1002C15D1002A97
:1038600005D10500002B00D140E70D003EE7002BFD
:1038700048D08026D41AF604344201D09B1AF4E7CB
:10388000231E00D032E71D0030E7002A04D1002BB0
:103890003AD00D00FF2029E7002B9ED080236246FE
:1038A000DB031A4200D179E7019A1A4200D075E78A
:1038B00094460D0072E78020D61AC004064215D047
:1038C0000D009E1A3000FCF791FC33000538834050
:1038D000844210DC1A00001B20240130C240201A50
:1038E00083405E1EB34100201343FFE6002EE9D162
:1038F00033003000C7E7084A201A1340F6E60800F4
:103900000023F3E61300F1E61D0080239B04C1E7CA
:103910000023FAE6FFFFFF7DFFFFFFFBF0B5C30FBB
:1039200085B0440245000391640A2D0E0293019371
:103930000AD0FF2D38D080207F3D2E000023E400E8
:10394000C004044300930AE0002C33D02000FCF7AD
:103950004DFC7626431F9C407642361A0095039B09
:103960005F025D00DB0F7F0A2D0E039325D0FF2D34
:103970002DD0802228000025FF00D20417437F3875
:10398000039A029B361A5340009A9000284301384C
:103990000E2831D8FCF716FC9C9E799E989E799C47
:1039A0009C98792323236A002E000323002CC9D17D
:1039B0000223C7E726000123C4E7381E0DD0FCF719
:1039C00015FC431F9F4076235B42181AD8E7280056
:1039D0000325002FD4D10225D2E70125D0E7029B91
:1039E000009D012D00D175E0002D1CD0022D00D1CD
:1039F0006EE0032D17D141E0640179018C4231D38F
:103A00001A220120641A0125270040006400002FBB
:103A100001DBA14201D8641A2843013A002AF3D1FC
:103A2000621E9441044330007F30002830DD62077D
:103A300004D00F222240042A00D00434220103D5EE
:103A40003000264A80301440FE2841DCE408FF2282
:103A5000C005D20564021040640A0443D80720431D
:103A600005B0F0BD1B220020013ECCE78023DB0324
:103A70001C4204D01F4202D13C00039B01938020D2
:103A8000019BC0030443FF20E1E73C00039BA8E740
:103A90000122101A1B281DDC22009E36C240B440B1
:103AA0001000621E94410443620704D00F2222409A
:103AB000042A00D0043480222000D2041040144292
:103AC000C4D000240120C2E780240023E403D5E70A
:103AD0000024D8E700242000B9E7C046FFFFFFF725
:103AE00070B542024D024E004400520A240EC30F2C
:103AF0006D0A360EC90FFF2C02D10120002A10D109
:103B0000FF2E02D10120002D0BD10120B44208D19B
:103B1000AA4206D18B4205D0002C02D11000421ED1
:103B2000904170BD0020FCE730B54A0244024500D8
:103B30004B00640A2D0EC00F520A1B0EC90FFF2D39
:103B400004D1002C27D0022040421BE0FF2B01D1E2
:103B5000002AF8D1002D20D1002B01D1002A17D046
:103B6000002C07D0884201D19D4207DD002803D1F7
:103B7000012007E0081E05D10120E5E79D4202DA99
:103B80000028F9D030BD9442F0D8F9D30020F9E7ED
:103B9000002CFBD0EAE7FF2BDAD0002BE2D1002A81
:103BA000E4D0DFE730B54A02440245004B00640A26
:103BB0002D0EC00F520A1B0EC90FFF2D03D1002C72
:103BC00027D002201CE0FF2B01D1002AF9D1002DC3
:103BD00021D1002B01D1002A18D0002C07D0884217
:103BE00001D19D4208DD002803D1012008E0081E14
:103BF00006D10120404203E09D4202DA0028F8D0BD
:103C000030BD9442EFD8F9D30020F9E7002CFBD067
:103C1000E9E7FF2BD9D0002BE1D1002AE3D0DEE782
:103C2000F0B5C30F85B0450246000F1C6D0A360E75
:103C3000039302930AD0FF2E39D080240023ED0095
:103C4000E4047F3E2543019600930BE0002D34D021
:103C50002800FCF7CBFA431F9D4076235B421B1ADA
:103C6000019300967C027E00640A360EFF0F002E40
:103C700026D0FF2E2FD0802031000026E400C00483
:103C800004437F390098019A8000039B30438918D0
:103C900001387B404A1C0E2833D8FCF793FA2727BB
:103CA000872525A68725A625878484847600032377
:103CB0000196002DC8D10223C6E701230195C3E771
:103CC000002C0ED02000FCF791FA7621431F4942C8
:103CD0009C40091AD6E731000326002CD2D10226D7
:103CE000D0E721000126CDE72C00009E022E00D156
:103CF00082E0032E00D17DE0012E27D10024200098
:103D000038E0270CA4B2280CAEB22500444375431A
:103D10007E43AC4636192D0CAD197843AC4202D91E
:103D200080246402001964462E04A4B23619B4013A
:103D3000671EBC412D0CB60E2D183443AD012C432B
:103D4000280135D5012160080C40044310007F3064
:103D500000282FDD610704D00F212140042900D065
:103D60000434210103D58032100024490C40FE2880
:103D700042DCE408FF25C005ED0564022840640A22
:103D80000443D807204305B0F0BD8023DB031D4268
:103D900003D01C4201D1250002978024029BE4033A
:103DA0002C43FF20E6E72C00039B9EE73B009DE7AA
:103DB0000A00CBE70121081A1B289FDC9E32250050
:103DC0009440C540621E94412C43620704D00F22E8
:103DD0002240042A00D0043480222000D204104063
:103DE0001442C6D000240120C4E780250023ED033F
:103DF0000293D2E72500FBE70024D2E7FFFFFFF79D
:103E0000F0B543025B0A85B04F009C460193450024
:103E1000DE004B025A0A2D0E3F0E029203953A0025
:103E2000C40FC90F9B09FF2F01D1002B01D1012025
:103E30004140E81BA14200D0A0E000282CDD002F6B
:103E400018D1002B00D14CE1013800280ED19B196C
:103E50002A00590157D50132FF2A00D13FE1012143
:103E6000A34819405B0803400B434CE0FF2D06D1EB
:103E700033001FE0FF2DFBD08022D2041343012228
:103E80001B2807DC2021091A1A008B40C240591E4A
:103E90008B411A439319DBE700281FD0781B002DB4
:103EA0000AD1002E2FD00138002801D19B19D0E76C
:103EB000FF2F06D1FF2226E0FF2FFBD08021C9046F
:103EC0000E4301211B2807DC31002025C140281AA0
:103ED0008640701E864131435B18BAE7691CFE2795
:103EE0000A003A40394242D1002D2ED1002E0AD08C
:103EF000002B00D1F8E080219B19C9040B4202D0AD
:103F00007C4A13400122590704D00F21194004298B
:103F100000D00433590105D50132FF2A00D1E5E074
:103F200074490B40DB08FF2A04D1002B02D080210A
:103F3000C9030B43D005FF225B02D20510405B0A88
:103F40000343E007184305B0F0BDFF22002EDAD08E
:103F5000002B00D1C8E08023019ADB031A4203D072
:103F6000029A1A4200D194466346DB00A2E7FF2979
:103F700000D1B3E0F3180A005B08C4E7002826DD8F
:103F8000002F1DD1002B00D1ABE00138002807D154
:103F9000F31A2A005901B6D59B019D0903927EE0D0
:103FA000FF2D00D164E701221B2807DC2021091A1C
:103FB0001A008B40C240591E8B411A43B31AE8E7DE
:103FC000FF2D00D154E78022D2041343EBE70028F1
:103FD00028D0781B8446002D0FD10C00002E00D174
:103FE00091E70120404284446046002801D19B1B98
:103FF000D0E7FF2F06D10C005CE7FF2FFBD080201D
:10400000C0040643644601201B2C08DC30006546D2
:10401000E0402024641BA640741EA64130430C00DF
:104020001B1AB7E76F1CFE203A00024007422FD14F
:10403000002D15D1002E05D11400002B00D162E710
:104040000C0060E7002B4FD08020F51AC004054219
:1040500001D09B1BF4E72B1E00D054E71C0052E755
:10406000002E05D1002BC6D11C0080239B0421E724
:10407000002B00D1FCE68023019ADB031A4200D119
:1040800072E7029A1A4200D06EE794460C006BE782
:104090008022F51AD204154216D00C009D1B280070
:1040A000FCF7A4F82B00039A05388340824210DC09
:1040B0001900821A20200132D140821A93405D1EDD
:1040C000AB4100220B431EE7002DE8D12B002A0054
:1040D000C4E7039A121A0748034014E70A000023B2
:1040E00011E733002A000EE733000CE7002319E73D
:1040F000FFFFFF7DFFFFFFFB002370B50400984228
:104100000AD0FCF773F89E2302001B1A962B08DCDA
:10411000082801DD083A94406402D805640A204367
:1041200070BD992B0ADD010020001B318840010081
:10413000481E81410520801AC4400C43052A01DD38
:10414000511F8C40210008480140650704D00F250D
:104150002C40042C00D004314C0102D59F23014097
:104160009B1ACC08D8E7C046FFFFFFFBF0B589B02B
:104170000400019003930D03CB0F480017002D0B93
:10418000400D0693059344D05E4B984265D080263F
:10419000630FED001D435C4B36042E43E400C3184F
:1041A000029300230193039B38001D035A00DB0F89
:1041B0002D0B520D07935FD0524B9A4200D17EE0F7
:1041C0007B0FED001D4380234F491B041D435218F4
:1041D000FB0000210698079F784004900298821AFD
:1041E0000392019A9000084301380E2800D98FE00D
:1041F000FBF7F2FF84002002D00120021A02200205
:10420000D001840084001A02D00172007200720092
:10421000C001019E2E4327D0002D13D02800FBF7AC
:10422000E5FF01000B391C2911DC02001D23019E52
:10423000083A019C5B1A9540DE4094402E43334B74
:104240001B1AADE72000FBF7D1FF2030E9E70300A0
:10425000019E283B9E400024F1E7019E2E4307D09B
:104260002E00032302909DE734000123029699E774
:1042700034000223029095E72B003B4325D0002D0C
:1042800013D02800FBF7B2FF01000B391C2910DC0A
:104290001D235B1A39000200D9403B00083A9540C3
:1042A00093400D43194A121A93E7FBF79FFF203002
:1042B000EAE703003D00283B9D400023F2E73B0076
:1042C0002B4306D03B00032184E71D001A00012187
:1042D00080E71D0002217DE7069B019904930129D7
:1042E00000D1AEE1002900D10EE1022900D1A5E103
:1042F000032900D008E1049B059345E100231C003D
:10430000004D24E1FF07000001FCFFFF0DFCFFFF53
:10431000B54204D300D027E1A34200D924E1F1073C
:1043200062081143E0070C00019076082D021F0E71
:104330001B0202932B0C2F4307933000BBB207994B
:104340000593FBF7F9FEBBB243430A04210C0500B9
:1043500011438B4207D9C919013D8F4203D88B42C3
:1043600001D9851EC919C81A0799FBF7E5FEBAB22B
:1043700042430904A4B2030021438A4207D9C91960
:10438000013B8F4203D88A4201D9831EC919029C7E
:10439000891A029A2404120C240C2D040592069406
:1043A000059E2B43069D180C9AB254434543724315
:1043B00070435219260CB218954202D980256D021D
:1043C0004019150C2818250412042D0C551981428A
:1043D00005D31E00814225D1019AAA4222D2029C15
:1043E000019AA4466244A242A4416442E419091914
:1043F0005E1E01928F4204D314D16246019CA242F8
:1044000010D8884203D80DD1019A95420AD9029A50
:104410009E1E9446019B6344019393429B415B42E1
:10442000DB19C918019B091A5D1BAB428041404250
:10443000081A874200D1B2E00799FBF77DFEBBB2B4
:1044400043430A04290C040011438B4207D9C919BC
:10445000013C8F4203D88B4201D9841EC919C81A66
:104460000799FBF769FEBAB242430904ADB20300F3
:1044700029438A4207D9C919013B8F4203D88A428E
:1044800001D9831EC919240423430698891A9AB2B4
:104490005043069C019005981D0C6C4342434543D4
:1044A00001981219000C84466244944202D980207B
:1044B00040022D180198140C00041204000C651918
:1044C0001218A94204D300D0C4E01C00002A1BD05B
:1044D00079185C1EB94210D3A94204D300D0B8E0C9
:1044E000029890420BD29C1E029B02985B00834272
:1044F00080414042C719C9190293A94202D1029BC7
:104500009A4201D001231C43039B534A9D18002D5E
:1045100048DD630709D00F232340042B05D0231D5A
:10452000A342A441644236191C00F30107D580223E
:10453000D2009446494B1E40039B63441D00484BE8
:104540009D4200DD7AE0E40871070C43F308454A18
:104550002D051B0315401B0B1D43049B2000DB078F
:104560001D43290009B0F0BD039A013A03920022CD
:104570000192DBE680221203164205D0154203D1D8
:104580001C002E00079A05928023059A1B033343D3
:104590000492B5E61C00079B2E0004939FE60124BD
:1045A0006442B1E701235B1B382B4ADC1F2B26DC5E
:1045B0002D49039A8C466244100021003200D940F4
:1045C00082408440DE400A43611E8C413300144324
:1045D000620709D00F222240042A05D0221DA242E0
:1045E000A44164421B19140080221D0012041540CE
:1045F00013422AD15907E4080C43DB08A7E71F221E
:104600005242551B32000021EA40202B05D01749A9
:10461000039B8C4631006344994021434C1EA141C9
:104620000A4314000023D3E7002380261C000593CF
:104630003603A9E700231C001D0088E7002423009F
:104640005EE600242300250081E7002301251C00ED
:104650007DE723001C0055E7FF030000FFFFFFFE7E
:10466000FE0700000000F07F1E0400003E04000072
:10467000F0B58BB017000293CA0F0E034B00040075
:10468000360B5B0D0492039246D0C84A934266D023
:10469000F600420F3243802636041643C44AC50052
:1046A0009B18019300230093029B38001C035A00BF
:1046B000DB0F240B520D059360D0BC4B9A4200D106
:1046C0007FE07B0FE4001C438023B9491B041C439B
:1046D0005018FB0000220499059F7940029101992E
:1046E0004118069101310191009988001043013869
:1046F0000E2800D984E0FBF76FFD76007600760186
:1047000073007300BE0176017300BE017300760171
:1047100071017101710167013500054326D0002E3A
:1047200013D03000FBF762FD05000B3D1C2D10DCA3
:1047300002001D232100083A94405B1B9640D9409B
:1047400025000E439B4B1B1AABE7FBF74FFD2030B8
:10475000EAE70300283B9C4000252600F2E73443AB
:10476000251E07D00193050003239CE72E0001239B
:10477000019598E701932600022394E723003B4329
:1047800026D0002C13D02000FBF730FD01000B39A0
:104790001C2910DC1D235B1A39000200D9403B00A4
:1047A000083A944093400C43824A101A92E7FBF770
:1047B0001DFD2030EAE703003C00283B9C4000231D
:1047C000F2E73B00234307D010003B00032282E7BF
:1047D0001C00180001227EE710001C0002227AE76C
:1047E00034002B00009A022A00D153E1032A00D1A1
:1047F0004DE1012A00D0A9E0002425002200C7E0F5
:10480000190C9BB21F002A0CADB228000091514335
:104810000491009957436943C919584303930B0006
:10482000010CC9188F4205D980277F02BC46049B22
:10483000634404930B0C270C090480B2A4B29C4679
:104840000B1829002000614350437D4308932D1825
:104850000B0C5D197A43A84202D980235B02D2185F
:10486000280C83182D0489B205936B180793079AB7
:1048700063469446B0B2310C06006344009A099333
:10488000039B42435E434B43D2189446009D320C37
:1048900062444D43934202D980235B02ED18130C0E
:1048A0005B190500784365434C43794300192F0C8D
:1048B0001204B6B2381800939619844202D98023A4
:1048C0005B02C918099A049B944663441F00079B26
:1048D00002049F429B41ADB25219009D059CAC461B
:1048E0005B421219D4180393059BBF199A42924157
:1048F000039BA444B742B6419C42A4416546009B39
:10490000764264425242AD192243000CB542B64190
:1049100012189C458041764240423043089B121851
:10492000521879021943481E8141FF0D0F433B0085
:10493000EC0D52026D0214432B43D20156D50125D2
:104940005A082B401343E5072B436408019A1A4980
:104950005218002A4DDD590709D00F2119400429AA
:1049600005D0191D99429B415B42E4180B00E101FF
:1049700006D58021C9008C46104A1440019A624431
:104980000F498A4200DD85E06507DB081D43E40826
:1049900013050C4A24031340240B1C43029B2800DC
:1049A000DB071C4321000BB0F0BDC046FF07000031
:1049B00001FCFFFF0DFCFFFFFF030000FFFFFFFEF8
:1049C000FE0700000000F07F80221203164257D03D
:1049D000144255D12600059A039250E0049A3400FF
:1049E0002B000292FEE605990291FCE6069A0192DE
:1049F000ACE70120801A382800DDFDE61F2825DC01
:104A00002849019A8C46250062441900934095403C
:104A1000C1405A1E9341C4400D431D436B0709D04A
:104A20000F232B40042B05D02B1DAB42AD416D4213
:104A300064191D008021230009040B400C422CD175
:104A40006207ED081543E4081A00A1E71F21494257
:104A50008A1A2100D1400022202805D01248019A4C
:104A600084466244944022001A4315006A1E954110
:104A700000240D43D2E780260023360303931D0054
:104A80008024039B240334430293084A80E72600D2
:104A9000029AA1E700242500F7E70024012225005F
:104AA00076E7C0461E0400003E040000FF07000039
:104AB00070B5002822D0C317C5185D40C40F280068
:104AC000FBF794FB0F4B1B1A0A2811DC0B22290061
:104AD000121AD1400A00290015308140200012032B
:104AE0001B05120B1A43C00702430800110070BDDA
:104AF0002A000B38824000212000F0E7030002006A
:104B00000100ECE71E04000010B5041E18D0FBF7EE
:104B10006DFB0D4A121A0A280DDC0B2321001B1A0B
:104B2000D94015300B0084401B031B0B12051A43A0
:104B30002000110010BD23000B3883400024F3E750
:104B400003000200F0E7C0461E04000070B54600F6
:104B5000360E4302C50F701CFE2102005C0A0A409B
:104B600008420DD0E0229200B2181B0B64071B0311
:104B700012051B0BED0713432B432000190070BDDA
:104B8000002E18D13300002CF1D02000FBF72EFBB3
:104B90000A280ADC0B2322001B1ADA401300020049
:104BA00015329440094A121AE1E703000B3B9C407E
:104BB00023003400F6E7002C06D080221B0B1203E2
:104BC00064071343024AD2E72300FBE7890300008E
:104BD000FF07000070B504000A0008034900490DF2
:104BE0003A4D630F400A4E1C1843D20FE3002E4289
:104BF00055D0374D4D19FE2D5FDC002D46DC2C00C5
:104C000017345DDB80241E2624042043761B1F2ED0
:104C10002ADC304C09191C008B4088405D1EAB41DA
:104C2000F440034323430021580704D00F201840C9
:104C3000042800D00433580104D50131FF2942D0A3
:104C400025480340DB08FF2904D1002B02D0802037
:104C5000C0030343C805FF215B02C90508405B0A86
:104C60000343D007184370BD02246442651B04004F
:104C7000EC4025000024202E03D0184C0919884050
:104C8000040023435C1EA3412B43CCE7A401611E17
:104C90008C41C0005B0F204329000343C4E703435A
:104CA000002902D1581E8341BEE7FF21002BBBD053
:104CB0008023C0009B040343B6E7FF210023B3E732
:104CC00000210123B0E70023BCE7C046FE07000037
:104CD00080FCFFFF82FCFFFFFFFFFFFBA2FCFFFF4A
:104CE000014B18687047C046AC0B002070B5002619
:104CF0000C4D0D4C641BA410A64209D1002604F0F3
:104D00002FF90A4D0A4C641BA410A64205D170BDB0
:104D1000B300EB5898470136EEE7B300EB589847DD
:104D20000136F2E72892000828920008289200082D
:104D30002C92000803008218934200D1704719702A
:104D40000133F9E7F0B51E00002314008BB09E423A
:104D500004DA8021090673181E002D23129A149F6D
:104D60001370202303229F43462F07D03B00453B6F
:104D700059424B411099013ACB18109309AB049357
:104D800008AB0393139B00920293109B22000193A4
:104D9000330000F0FDFC0500472F02D1119BDB071B
:104DA00028D5109BEB180793462F14D12B78302B66
:104DB0000CD10022002320003100FBF7ABFA0028C1
:104DC00004D10123109A9B1A139A1360139B079A1C
:104DD0001B68D31807930022002320003100FBF743
:104DE00099FA002801D0079B09933022099B079963
:104DF0008B4206D32800099B159A5B1B13600BB0EE
:104E0000F0BD591C09911A70F0E7F0B5831C87B00A
:104E1000039305000C002B230270002901DA4C4299
:104E200002336B70092C31DD0A2704ABDE1D200034
:104E300039000196FBF754FA013E30312000317001
:104E400039000294FBF702FA029B0400632BEEDCAC
:104E5000019B30349A1E13000399147004A8073084
:104E600098420ED804AB073300209A4204D804AB12
:104E70000930C018019BC01A039B1818401B07B0CB
:104E8000F0BD1878013308700131E7E73023E418EA
:104E9000AB70281DEC70F1E7F0B595B00C000892EE
:104EA0001A9D0993070001F059FA036818000B9343
:104EB000FBF7BAF900231293237E07221E00236812
:104EC0000D900C930C992B68C90547D59B189343FB
:104ED0001A0008322A601A685B68A264E36401223F
:104EE000A36CE56C0A936B005B080E930A98A84BC1
:104EF0000E99524202F0C6FE002831D10122A44B85
:104F00000A980E995242FBF715FA002828D1002280
:104F1000002329000A98FBF703FA002803D0230096
:104F20002D2243331A709B4D472E00D99A4D0323EF
:104F30000C9A236101339A43002322600A93099B50
:104F4000210000933800089B13AA00F0F3F9431CDA
:104F500000D09EE00120404215B0F0BD0733B6E717
:104F60000A9A2B001000290002F08CFE00280AD0BB
:104F7000002D03DA23002D2243331A70874D472E6C
:104F8000D5D9874DD3E720223100636891430E9134
:104F90005A1C47D10733636080230C9ADB0013430C
:104FA0000022069212AA059211AA0392232208A9AE
:104FB00023600193636852180292009338002B001B
:104FC0000A9A0496FFF7BEFE0E9B05001199472B27
:104FD00008D1CB1C02DB6368994246DD3300023BFB
:104FE000DBB21E00652E24D820003200013950307B
:104FF0001191FFF70AFF129A0A9013182361012AF0
:1050000002DC2268D20701D501332361232308AAD9
:105010009B181B78002B00D191E723002D224333EE
:105020001A708CE70E9A472AB6D1002BB4D10133FF
:10503000B1E7662E1BD1636800290DDD2161002BCD
:1050400002D12268D20702D5013359182161119B80
:10505000A36500230A93D9E7002B03D1012221681D
:10506000114200D09A1C2261F1E767231E00119BB8
:10507000129A934206DB22682361D207E7D50133F7
:105080002361E4E70121002B01DC4918C91A5218F9
:10509000E9E72268530508D423692A0038000899F3
:1050A000099DA847431C29D154E7652E00D8ECE0A0
:1050B000A06CE16C00220023FBF72CF9002834D00F
:1050C00001233800374A0899099DA847431C00D19D
:1050D00040E7119B129A934202DB2368DB070DD550
:1050E000099D38000D9B0B9A0899A8470025431C81
:1050F00000D12FE7129B013BAB420ADC23689B07E0
:1051000000D514E1139BE068984200DB24E7180007
:1051100022E72200012338000899099E1A32B0477D
:10512000431C00D116E70135E4E7119B002B3BDC63
:10513000012338001B4A0899099EB047431C00D13F
:1051400008E7119B129A134302D12368DB07D5D5D8
:105150000D9B38000B9A0899099EB047431C00D15B
:10516000F8E600230A93119B0A9A5B42934201DC02
:10517000129B92E72200012338000899099E1A32F7
:10518000B047431C00D1E5E60A9B0133EAE7C0467D
:10519000FFFFEF7FB48F0008B88F0008BC8F0008B6
:1051A000C08F0008C48F0008129AA36D0A929A4219
:1051B00000DD0A930A9B002B3DDC00230E930A9B23
:1051C000DB43DB170F93A36D0F9A0C930A9B1340DD
:1051D0000C9AD31A0E9A934236DC119B129A934280
:1051E00040DB2368DB073DD4129A0C9B1199D31A3C
:1051F000521A0A929A4200DD0A930A9B002B3ADC6B
:105200000A9B0025DB43DB170B93119A129B0B992A
:105210009B1A0A9A0A409B1AAB4200DC6EE72200F6
:10522000012338000899099E1A32B047431C00D167
:1052300090E60135E9E70A9B2A0038000899099EA3
:10524000B047431CB9D185E62200012338000899F4
:10525000099E1A32B047431C00D17BE60E9B0133F6
:105260000E93B0E70D9B38000B9A0899099EB04742
:10527000431CB9D16EE60C9B3800EA1808990A9BCA
:10528000099DA847431CBBD164E6129B012B02DC9D
:1052900001231A4238D001232A0038000899099EB8
:1052A000B047431C00D155E60D9B38000B9A089976
:1052B000099EB047431C00D14CE6A06CE16C002273
:1052C0000023FBF727F800281CD1129B6A1C013B26
:1052D00038000899099DA847431C0FD13AE62200DF
:1052E000012338000899099E1A32B047431C00D1A7
:1052F00030E60135129B013BAB42F0DC22000A9BF9
:105300005032CBE60025F5E72A00E1E72200012331
:1053100038000899099E1932B047431C00D119E69C
:105320000135E368139A9B1AAB42EFDCEAE60025ED
:10533000F7E7C046F7B5150001938A680B690C00C2
:105340000090934200DA130022002B60433212785F
:10535000002A01D001332B6023689B0602D52B68FD
:1053600002332B602268062317001F401A4227D001
:10537000230043331B785A1E93412268920630D48F
:10538000220001990098089E4332B047431C25D063
:10539000062320682A68E16800250340042B03D116
:1053A0008D1AEB43DB171D40A3682269934201DD90
:1053B0009B1AED180027BD4220D1002010E00137D4
:1053C000E3682A689B1ABB42D2DD220001230199BF
:1053D0000098089E1932B047431CF0D1012040428A
:1053E000FEBD3020E1184331087021005A1C4531C0
:1053F0000978A218433202331170C1E72200012359
:1054000001990098089E1A32B047431CE6D0013734
:10541000D1E70000F0B58BB006920A004332079343
:10542000059004920A7E0C00109B782A06D8622A06
:1054300008D8002A00D1C0E0582A52D026004236AF
:10544000327022E0100063381528F7D8FAF7F4FE1E
:1054500016001F00F6FFF6FFF6FFF6FF1F00F6FF2F
:10546000F6FFF6FFF6FFA80036009A00F6FFF6FFFB
:10547000B900F6FF3600F6FFF6FF9E0026001A6818
:105480004236111D1960136833700123A7E00868C4
:1054900019680A1D05060BD50D681A60002D03DA80
:1054A0002D23049A6D421370614B0A27039332E057
:1054B0000D681A604106F1D52DB2EFE70D68196845
:1054C000081D18602E0601D50D6803E06D06FBD59A
:1054D0000D68ADB2564B0A2703936F2A17D10827E0
:1054E00015E045310A70524A03921A68216820CAB1
:1054F0001A60080650D5CB0702D520231943216036
:105500001027002D03D1202322689A432260230014
:10551000002243331A706368A360002B03DB04226C
:10552000216891432160002D02D1049E002B0CD0F4
:10553000049E28003900FAF7FFFD039B013E5B5CE7
:1055400033702B0005009F42F3D9082F09D123683F
:10555000DB0706D563682269934202DC3023013EF3
:105560003370049B9B1B2361079B210000930598CC
:10557000069B09AAFFF7DEFE431C35D101204042FD
:105580000BB0F0BD202209680A4322602200782176
:1055900045321170274AA7E74806ACD5ADB2AAE755
:1055A0001A680D68101D4969186013682E0601D528
:1055B000196002E06D06FBD519800023049E23616B
:1055C000D2E71A68111D1960166800213000626860
:1055D00000F0E6FE002801D0801B60606368236154
:1055E0000023049A1370BFE72369320006990598D7
:1055F000079DA847431CC1D023689B0715D4099B6E
:10560000E0689842BCDA1800BAE722000123069944
:105610000598079E1932B047431CAFD00135E368A7
:10562000099A9B1AAB42F0DCE9E70025F7E7C04690
:10563000C68F0008D78F00080EB400B50B499CB088
:105640001DAB02900690079104910948094904CBCB
:105650000591006802A9019301F0FAFA0023029A69
:1056600013701CB008BC03B01847C046FFFFFF7F93
:10567000AC0B00200802FFFFF0B506000D6933698E
:1056800087B000200291AB426BDB0B00013DAC0008
:10569000143305931B1903933300143301931C191E
:1056A000039B27681B68380000930133190004939B
:1056B000FAF706FD049B00909F4229D300239C46E5
:1056C0000198059F049308CF009A99B251431B0C8F
:1056D000534361440A0C9B181A0C059303689446C3
:1056E0009AB2049B89B2D2180368521A190C6B46FD
:1056F0009B8ACB1A11145B18191492B21B041A431B
:10570000039B049104C0BB42DDD22368002B2ED042
:105710003000029901F090F8002821DB30000024CD
:10572000009B02990133009314301431026808C9B8
:1057300092B214199AB2A21A04681B0C240CE31A30
:1057400014141B191C1492B21B04134308C0039BAE
:105750008B42EBD2019AAB00D3181A68002A10D002
:10576000009807B0F0BD2368002B04D1013D019BD8
:10577000043CA342F7D33561CAE71A68002A04D172
:10578000013D019A043B9A42F7D33561E8E70000F6
:10579000F0B59FB002920393029B039C0C930D946F
:1057A000446A279D0590002C08D1102000F0DCFDF4
:1057B000059B4460586284600460C460059B5B6A1A
:1057C000196800290BD05A68012393404A608B6006
:1057D000059800F031FE0022059B5B6A1A60039B6E
:1057E000002B21DA01232B60039B5B005B080D93E8
:1057F0000D9DB64B2A001A931A409A4217D1B44B0A
:10580000269A28031360029B000B184301D100F075
:105810008FFDB04B289A0A93002A02D0AE4B289AEB
:1058200013600A981FB0F0BD00232B60E0E70C9BCB
:105830000D9C129313941298139900220023FAF7E7
:1058400069FD041E0BD00123269A1360A34B289AEE
:105850000A93002AE5D0A24A28990A60E1E71CAB26
:1058600001931DAB00930598129A139B01F082F8E7
:105870006E000690760D00D17EE012981399139B6E
:10588000984A1B031B0B1A431100974B1894F618E8
:105890000022964B01F018FF954A964BFEF7E8FE62
:1058A000954A964B01F044FB040030000D00FFF7D1
:1058B000FFF8934A934BFEF7DBFE02000B0020003B
:1058C000290001F035FB04000D0002F0F7F9002279
:1058D0000290002320002900FAF722FD00280BD0B7
:1058E0000298FFF7E5F82B002200FAF713FD434278
:1058F0005841029B1B1A029301231693029B162BFD
:105900000FD812981399DA007F4B9B181A685B68BE
:10591000FAF706FD00284BD0029B013B02930023BF
:1059200016931C9B9E1B00230B933300013B0F938C
:1059300004D501239B1B0B9300230F93029B002B89
:1059400038DB029A0F9B944663440F930023159211
:105950001093249B0124092B00D990E0052B02DD34
:105960000024043B2493249B981E032800D98FE035
:10597000FAF728FC293634831C9B1D9A9E18634B2A
:10598000F218202A0FDD40239B1A9D40604B02989D
:10599000F318D8402843FFF7B7F801235D4C013EC8
:1059A0000919189374E7202302989B1A9840F2E78C
:1059B0001690B6E70B9B029A9B1A0B9353421093D7
:1059C00000231593C5E700231493259B002B63DC6C
:1059D00001231A000E93079325920DE00123F3E7AC
:1059E0000023259A14939446029B63440E9301333B
:1059F0000793002B00DC0123059A556A00226A6098
:105A00000432100014306968984249D9059800F0B2
:105A1000DBFC059B28605B6A1B680A93079B0E2BC7
:105A200000D9F2E0002C00D1EFE0029B002B75DDE5
:105A30001A000F21344B0A40D2009B181D685E6883
:105A4000029B02271C11DB050AD5334B0C401A6A56
:105A50005B6A12981399FEF789FB0C900D91013740
:105A60002D4B0893002C1FD10C980D992A00330060
:105A7000FEF77CFB0C900D916BE00123B1E7002356
:105A800014942493013B0E93079300221333A3E74E
:105A900001231493023BF6E7259B0E930793ABE794
:105AA000013169605200ACE701231C4209D0FF18A4
:105AB000089B28001A685B683100FEF7D9FD0500D5
:105AC0000E00089B64100833CBE7C0460000F07F4F
:105AD0000F270000F18F0008F48F0008C48F000822
